{
  "contractName": "FavoriteNumber",
  "abi": [
    {
      "inputs": [],
      "name": "getFavoriteNumber",
      "outputs": [
        {
          "internalType": "uint256",
          "name": "",
          "type": "uint256"
        }
      ],
      "stateMutability": "view",
      "type": "function",
      "constant": true
    },
    {
      "inputs": [
        {
          "internalType": "uint256",
          "name": "_favoriteNumber",
          "type": "uint256"
        }
      ],
      "name": "setFavoriteNumber",
      "outputs": [],
      "stateMutability": "nonpayable",
      "type": "function"
    }
  ],
  "bytecode": "0x6080604052348015600f57600080fd5b5060ac8061001e6000396000f3fe6080604052348015600f57600080fd5b506004361060325760003560e01c80638ec04232146037578063a621d15e146049575b600080fd5b60476042366004605e565b600055565b005b60005460405190815260200160405180910390f35b600060208284031215606f57600080fd5b503591905056fea26469706673582212204bf5c0dfb803ab862262dd804e333cbc804473edb88731bd63590db34e4db96a64736f6c63430008090033",
  "immutableReferences": {},
  "source": "// SPDX-License-Identifier: MIT\npragma solidity ^0.8.9;\n\ncontract FavoriteNumber {\n  uint favoriteNumber;\n\n  function getFavoriteNumber() external view returns(uint){\n    return favoriteNumber;\n  }\n\n  function setFavoriteNumber(uint _favoriteNumber) external {\n    favoriteNumber = _favoriteNumber;\n  }\n}\n",
  "sourcePath": "/home/d3j1x/Desktop/TruffleTest/contracts/FavoriteNumber.sol",
  "compiler": {
    "name": "solc",
    "version": "0.8.9+commit.e5eed63a.Emscripten.clang"
  },
  "schemaVersion": "3.4.11",
  "updatedAt": "2023-01-05T16:02:34.025Z",
  "networkType": "ethereum",
  "devdoc": {
    "kind": "dev",
    "methods": {},
    "version": 1
  },
  "userdoc": {
    "kind": "user",
    "methods": {},
    "version": 1
  }
}