{
  "contractName": "MusiciansManager",
  "abi": [
    {
      "inputs": [],
      "stateMutability": "nonpayable",
      "type": "constructor"
    },
    {
      "anonymous": false,
      "inputs": [
        {
          "components": [
            {
              "internalType": "string",
              "name": "_title",
              "type": "string"
            },
            {
              "internalType": "uint256",
              "name": "_duration",
              "type": "uint256"
            }
          ],
          "indexed": false,
          "internalType": "struct MusiciansManager.Track[]",
          "name": "_tracks",
          "type": "tuple[]"
        }
      ],
      "name": "getTheTracks",
      "type": "event"
    },
    {
      "anonymous": false,
      "inputs": [
        {
          "indexed": false,
          "internalType": "string",
          "name": "_artistName",
          "type": "string"
        }
      ],
      "name": "musicianCreated",
      "type": "event"
    },
    {
      "anonymous": false,
      "inputs": [
        {
          "indexed": false,
          "internalType": "string",
          "name": "_artistName",
          "type": "string"
        },
        {
          "indexed": false,
          "internalType": "string",
          "name": "_title",
          "type": "string"
        }
      ],
      "name": "trackAdded",
      "type": "event"
    },
    {
      "inputs": [
        {
          "internalType": "address",
          "name": "_musicianAddress",
          "type": "address"
        },
        {
          "internalType": "string",
          "name": "_artistName",
          "type": "string"
        }
      ],
      "name": "addMusician",
      "outputs": [],
      "stateMutability": "nonpayable",
      "type": "function"
    },
    {
      "inputs": [
        {
          "internalType": "address",
          "name": "_musicianAddress",
          "type": "address"
        },
        {
          "internalType": "string",
          "name": "_title",
          "type": "string"
        },
        {
          "internalType": "uint256",
          "name": "_duration",
          "type": "uint256"
        }
      ],
      "name": "addTrack",
      "outputs": [],
      "stateMutability": "nonpayable",
      "type": "function"
    },
    {
      "inputs": [
        {
          "internalType": "address",
          "name": "_musicianAddress",
          "type": "address"
        }
      ],
      "name": "getTracks",
      "outputs": [],
      "stateMutability": "nonpayable",
      "type": "function"
    }
  ],
  "bytecode": "0x608060405234801561001057600080fd5b50600180546001600160a01b031916331790556107f2806100326000396000f3fe608060405234801561001057600080fd5b50600436106100415760003560e01c80636bcc7782146100465780637b061e381461005b578063b14efb5f1461006e575b600080fd5b610059610054366004610443565b610081565b005b610059610069366004610508565b6100e1565b61005961007c366004610556565b610214565b7f1c56b8acd78e4cf62b13bf2065d86aaa91f6e5d4ca142798d8e8d03edc5a4a00600080836001600160a01b03166001600160a01b031681526020019081526020016000206001016040516100d691906105e8565b60405180910390a150565b6001546001600160a01b031633146101305760405162461bcd60e51b815260206004820152600d60248201526c2737ba103a34329027bbb732b960991b60448201526064015b60405180910390fd5b6001600160a01b03821660009081526020819052604090208054610153906105ad565b1590506101b15760405162461bcd60e51b815260206004820152602660248201527f54686973204d7573696369616e2068617320616c7265616479206265656e20636044820152651c99585d195960d21b6064820152608401610127565b6001600160a01b03821660009081526020818152604090912082516101d89284019061038e565b507f08e51fe4815297917128fa893659743d8634168b341c5e8e6d4c0c5a81394bcc816040516102089190610710565b60405180910390a15050565b6001546001600160a01b0316331461025e5760405162461bcd60e51b815260206004820152600d60248201526c2737ba103a34329027bbb732b960991b6044820152606401610127565b6001600160a01b03831660009081526020819052604081208054610281906105ad565b9050116102d05760405162461bcd60e51b815260206004820152601c60248201527f54686973204d7573696369616e20646f6573206e6f74206578697374000000006044820152606401610127565b60408051808201825283815260208082018490526001600160a01b0386166000908152808252928320600190810180549182018155845292819020825180519394859460029091029092019261032b9284929091019061038e565b506020918201516001909101556001600160a01b03851660009081529081905260409081902090517f5115c96efdf6d18732cb7d6340f8d69c0d0f4f2c14e9b01b435a1190ce443c3d91610380918690610723565b60405180910390a150505050565b82805461039a906105ad565b90600052602060002090601f0160209004810192826103bc5760008555610402565b82601f106103d557805160ff1916838001178555610402565b82800160010185558215610402579182015b828111156104025782518255916020019190600101906103e7565b5061040e929150610412565b5090565b5b8082111561040e5760008155600101610413565b80356001600160a01b038116811461043e57600080fd5b919050565b60006020828403121561045557600080fd5b61045e82610427565b9392505050565b634e487b7160e01b600052604160045260246000fd5b600082601f83011261048c57600080fd5b813567ffffffffffffffff808211156104a7576104a7610465565b604051601f8301601f19908116603f011681019082821181831017156104cf576104cf610465565b816040528381528660208588010111156104e857600080fd5b836020870160208301376000602085830101528094505050505092915050565b6000806040838503121561051b57600080fd5b61052483610427565b9150602083013567ffffffffffffffff81111561054057600080fd5b61054c8582860161047b565b9150509250929050565b60008060006060848603121561056b57600080fd5b61057484610427565b9250602084013567ffffffffffffffff81111561059057600080fd5b61059c8682870161047b565b925050604084013590509250925092565b600181811c908216806105c157607f821691505b602082108114156105e257634e487b7160e01b600052602260045260246000fd5b50919050565b60006020808301818452808554808352604092508286019150828160051b8701016000888152858120815b848110156106b457603f198a8503018652868452828254610633816105ad565b808a8801526060600180841660008114610654576001811461066857610693565b60ff1985168a84015260808a019550610693565b8789528d8920895b8581101561068b5781548c8201860152908301908f01610670565b8b0184019650505b50860154978c01979097525050958801959350600290910190600101610613565b50919998505050505050505050565b6000815180845260005b818110156106e9576020818501810151868301820152016106cd565b818111156106fb576000602083870101525b50601f01601f19169290920160200192915050565b60208152600061045e60208301846106c3565b604081526000808454610735816105ad565b8060408601526060600180841660008114610757576001811461076b5761079c565b60ff1985168884015260808801955061079c565b8960005260208060002060005b868110156107935781548b8201870152908401908201610778565b8a018501975050505b505050505082810360208401526107b381856106c3565b9594505050505056fea264697066735822122052ecf6549677538dcc0a0286c81a9db2c528506ac6695772cc676a9ae54e7d3564736f6c63430008090033",
  "immutableReferences": {},
  "source": "// SPDX-License-Identifier: MIT\npragma solidity ^0.8.9;\n\ncontract MusiciansManager {\n\n  event musicianCreated(string _artistName);\n  event trackAdded(string _artistName, string _title);\n  event getTheTracks(Track[] _tracks);\n\n  struct Track {\n    string _title;\n    uint _duration;\n  }\n  \n  struct Musician {\n    string _artistName;\n    Track[] _tracks;\n  }\n\n  mapping(address => Musician) Musicians;\n\n  address owner;\n\n  constructor() {\n    owner = msg.sender;\n  }\n\n  modifier onlyOwner() {\n    require(msg.sender == owner, \"Not the Owner\");\n    _;\n  }\n\n  function addMusician(address _musicianAddress, string memory _artistName)\n  external onlyOwner {\n    require(bytes(Musicians[_musicianAddress]._artistName).length == 0,\"This Musician has already been created\");\n    Musicians[_musicianAddress]._artistName = _artistName;\n\n    emit musicianCreated(_artistName);\n  }\n\n  function addTrack(address _musicianAddress, string memory _title, uint _duration)\n  external onlyOwner {\n    require(bytes(Musicians[_musicianAddress]._artistName).length > 0,\"This Musician does not exist\");\n    Track memory thisTrack = Track(_title, _duration);\n    Musicians[_musicianAddress]._tracks.push(thisTrack);\n\n    emit trackAdded(Musicians[_musicianAddress]._artistName, _title);\n  }\n\n  function getTracks(address _musicianAddress) external {\n    \n    emit getTheTracks(Musicians[_musicianAddress]._tracks);\n  }\n\n\n\n}\n",
  "sourcePath": "/home/d3j1x/Desktop/Github/Blockchain.Dev/WEB3JAVASCRIPT/StartUp/03 Truffle/01 small projct/contracts/MusiciansManager.sol",
  "compiler": {
    "name": "solc",
    "version": "0.8.9+commit.e5eed63a.Emscripten.clang"
  },
  "schemaVersion": "3.4.11",
  "updatedAt": "2023-01-06T11:14:56.854Z",
  "devdoc": {
    "kind": "dev",
    "methods": {},
    "version": 1
  },
  "userdoc": {
    "kind": "user",
    "methods": {},
    "version": 1
  }
}